{
    "contractName": "FloodHelp",
    "abi": [
        {
            "anonymous": false,
            "inputs": [
                {
                    "indexed": false,
                    "internalType": "uint256",
                    "name": "id",
                    "type": "uint256"
                },
                {
                    "indexed": false,
                    "internalType": "address",
                    "name": "donor",
                    "type": "address"
                },
                {
                    "indexed": false,
                    "internalType": "uint256",
                    "name": "amount",
                    "type": "uint256"
                }
            ],
            "name": "DonationReceived",
            "type": "event"
        },
        {
            "anonymous": false,
            "inputs": [
                {
                    "indexed": false,
                    "internalType": "uint256",
                    "name": "id",
                    "type": "uint256"
                },
                {
                    "indexed": false,
                    "internalType": "address",
                    "name": "author",
                    "type": "address"
                }
            ],
            "name": "HelpRequestClosed",
            "type": "event"
        },
        {
            "anonymous": false,
            "inputs": [
                {
                    "indexed": false,
                    "internalType": "uint256",
                    "name": "id",
                    "type": "uint256"
                },
                {
                    "indexed": false,
                    "internalType": "string",
                    "name": "title",
                    "type": "string"
                },
                {
                    "indexed": false,
                    "internalType": "address",
                    "name": "author",
                    "type": "address"
                }
            ],
            "name": "HelpRequestOpened",
            "type": "event"
        },
        {
            "inputs": [
                {
                    "internalType": "uint256",
                    "name": "id",
                    "type": "uint256"
                }
            ],
            "name": "closeHelpRequest",
            "outputs": [],
            "stateMutability": "nonpayable",
            "type": "function"
        },
        {
            "inputs": [
                {
                    "internalType": "uint256",
                    "name": "id",
                    "type": "uint256"
                }
            ],
            "name": "donate",
            "outputs": [],
            "stateMutability": "payable",
            "type": "function"
        },
        {
            "inputs": [
                {
                    "internalType": "uint256",
                    "name": "page",
                    "type": "uint256"
                },
                {
                    "internalType": "uint256",
                    "name": "pageSize",
                    "type": "uint256"
                }
            ],
            "name": "getHelpRequests",
            "outputs": [
                {
                    "components": [
                        {
                            "internalType": "uint256",
                            "name": "id",
                            "type": "uint256"
                        },
                        {
                            "internalType": "string",
                            "name": "title",
                            "type": "string"
                        },
                        {
                            "internalType": "string",
                            "name": "description",
                            "type": "string"
                        },
                        {
                            "internalType": "string",
                            "name": "contact",
                            "type": "string"
                        },
                        {
                            "internalType": "uint256",
                            "name": "timestamp",
                            "type": "uint256"
                        },
                        {
                            "internalType": "address",
                            "name": "author",
                            "type": "address"
                        },
                        {
                            "internalType": "uint256",
                            "name": "goal",
                            "type": "uint256"
                        },
                        {
                            "internalType": "uint256",
                            "name": "balance",
                            "type": "uint256"
                        },
                        {
                            "internalType": "bool",
                            "name": "open",
                            "type": "bool"
                        }
                    ],
                    "internalType": "struct FloodHelp.HelpRequest[]",
                    "name": "",
                    "type": "tuple[]"
                }
            ],
            "stateMutability": "view",
            "type": "function"
        },
        {
            "inputs": [
                {
                    "internalType": "uint256",
                    "name": "",
                    "type": "uint256"
                }
            ],
            "name": "helpRequests",
            "outputs": [
                {
                    "internalType": "uint256",
                    "name": "id",
                    "type": "uint256"
                },
                {
                    "internalType": "string",
                    "name": "title",
                    "type": "string"
                },
                {
                    "internalType": "string",
                    "name": "description",
                    "type": "string"
                },
                {
                    "internalType": "string",
                    "name": "contact",
                    "type": "string"
                },
                {
                    "internalType": "uint256",
                    "name": "timestamp",
                    "type": "uint256"
                },
                {
                    "internalType": "address",
                    "name": "author",
                    "type": "address"
                },
                {
                    "internalType": "uint256",
                    "name": "goal",
                    "type": "uint256"
                },
                {
                    "internalType": "uint256",
                    "name": "balance",
                    "type": "uint256"
                },
                {
                    "internalType": "bool",
                    "name": "open",
                    "type": "bool"
                }
            ],
            "stateMutability": "view",
            "type": "function"
        },
        {
            "inputs": [],
            "name": "lastId",
            "outputs": [
                {
                    "internalType": "uint256",
                    "name": "",
                    "type": "uint256"
                }
            ],
            "stateMutability": "view",
            "type": "function"
        },
        {
            "inputs": [
                {
                    "internalType": "string",
                    "name": "title",
                    "type": "string"
                },
                {
                    "internalType": "string",
                    "name": "description",
                    "type": "string"
                },
                {
                    "internalType": "string",
                    "name": "contact",
                    "type": "string"
                },
                {
                    "internalType": "uint256",
                    "name": "goal",
                    "type": "uint256"
                }
            ],
            "name": "openHelpRequest",
            "outputs": [],
            "stateMutability": "nonpayable",
            "type": "function"
        }
    ],
    "bytecode": "60806040525f80553480156011575f80fd5b506111718061001f5f395ff3fe608060405260043610610054575f3560e01c806306e7b83f1461005857806361a8545a1461009557806367b17cfc146100b6578063bf66237b146100d5578063c1292cc314610101578063f14faf6f14610123575b5f80fd5b348015610063575f80fd5b50610077610072366004610c3c565b610136565b60405161008c99989796959493929190610c81565b60405180910390f35b3480156100a0575f80fd5b506100b46100af366004610c3c565b61031b565b005b3480156100c1575f80fd5b506100b46100d0366004610d99565b6104b9565b3480156100e0575f80fd5b506100f46100ef366004610e2f565b61072d565b60405161008c9190610e4f565b34801561010c575f80fd5b506101155f5481565b60405190815260200161008c565b6100b4610131366004610c3c565b610b57565b600160208190525f91825260409091208054918101805461015690610f4f565b80601f016020809104026020016040519081016040528092919081815260200182805461018290610f4f565b80156101cd5780601f106101a4576101008083540402835291602001916101cd565b820191905f5260205f20905b8154815290600101906020018083116101b057829003601f168201915b5050505050908060020180546101e290610f4f565b80601f016020809104026020016040519081016040528092919081815260200182805461020e90610f4f565b80156102595780601f1061023057610100808354040283529160200191610259565b820191905f5260205f20905b81548152906001019060200180831161023c57829003601f168201915b50505050509080600301805461026e90610f4f565b80601f016020809104026020016040519081016040528092919081815260200182805461029a90610f4f565b80156102e55780601f106102bc576101008083540402835291602001916102e5565b820191905f5260205f20905b8154815290600101906020018083116102c857829003601f168201915b5050506004840154600585015460068601546007870154600890970154959692956001600160a01b039092169450925060ff1689565b5f8181526001602052604090206005810154600782015460068301546008909301546001600160a01b0390921692909160ff1661039f5760405162461bcd60e51b815260206004820152601e60248201527f48656c70207265717565737420697320616c726561647920636c6f736564000060448201526064015b60405180910390fd5b336001600160a01b03841614806103b65750808210155b61040d5760405162461bcd60e51b815260206004820152602260248201527f596f752063616e6e6f7420636c6f736520746869732068656c702072657175656044820152611cdd60f21b6064820152608401610396565b5f848152600160205260409020600801805460ff191690558115610471575f84815260016020526040808220600701829055516001600160a01b0385169184156108fc02918591818181858888f1935050505015801561046f573d5f803e3d5ffd5b505b604080518581526001600160a01b03851660208201527f3234d70cd5e39b9e554d3e8b9325321e54907ae69176903be767b1207075cdd491015b60405180910390a150505050565b5f8451116105015760405162461bcd60e51b81526020600482015260156024820152745469746c652063616e6e6f7420626520656d70747960581b6044820152606401610396565b5f8351116105515760405162461bcd60e51b815260206004820152601b60248201527f4465736372697074696f6e2063616e6e6f7420626520656d70747900000000006044820152606401610396565b5f8251116105a15760405162461bcd60e51b815260206004820152601760248201527f436f6e746163742063616e6e6f7420626520656d7074790000000000000000006044820152606401610396565b5f81116105f05760405162461bcd60e51b815260206004820152601e60248201527f476f616c206d7573742062652067726561746572207468616e207a65726f00006044820152606401610396565b5f805490806105fe83610f9b565b909155505060408051610120810182525f80548083526020808401898152848601899052606085018890524260808601523360a086015260c0850187905260e085018490526001610100860181905292845290829052939091208251815592519192919082019061066f9082610fff565b50604082015160028201906106849082610fff565b50606082015160038201906106999082610fff565b506080820151600482015560a08201516005820180546001600160a01b0319166001600160a01b0390921691909117905560c0820151600682015560e08201516007820155610100909101516008909101805460ff19169115159190911790555f546040517f2cf91490ecc014adc4ee643b363f73270ff63d9aa2c225af610d9763319f876a916104ab91879033906110ba565b60605f831161078c5760405162461bcd60e51b815260206004820152602560248201527f50616765206e756d626572206d7573742062652067726561746572207468616e604482015264207a65726f60d81b6064820152608401610396565b5f82116107e75760405162461bcd60e51b815260206004820152602360248201527f506167652073697a65206d7573742062652067726561746572207468616e207a60448201526265726f60e81b6064820152608401610396565b5f826107f46001866110ea565b6107fe91906110fd565b610809906001611114565b90505f60016108188584611114565b61082291906110ea565b90505f5481116108325780610835565b5f545b90505f61084283836110ea565b61084d906001611114565b67ffffffffffffffff81111561086557610865610cfa565b6040519080825280602002602001820160405280156108ea57816020015b6108d76040518061012001604052805f81526020016060815260200160608152602001606081526020015f81526020015f6001600160a01b031681526020015f81526020015f81526020015f151581525090565b8152602001906001900390816108835790505b5090505f835b838111610b49575f81815260016020818152604092839020835161012081019094528054845291820180549184019161092890610f4f565b80601f016020809104026020016040519081016040528092919081815260200182805461095490610f4f565b801561099f5780601f106109765761010080835404028352916020019161099f565b820191905f5260205f20905b81548152906001019060200180831161098257829003601f168201915b505050505081526020016002820180546109b890610f4f565b80601f01602080910402602001604051908101604052809291908181526020018280546109e490610f4f565b8015610a2f5780601f10610a0657610100808354040283529160200191610a2f565b820191905f5260205f20905b815481529060010190602001808311610a1257829003601f168201915b50505050508152602001600382018054610a4890610f4f565b80601f0160208091040260200160405190810160405280929190818152602001828054610a7490610f4f565b8015610abf5780601f10610a9657610100808354040283529160200191610abf565b820191905f5260205f20905b815481529060010190602001808311610aa257829003601f168201915b50505091835250506004820154602082015260058201546001600160a01b03166040820152600682015460608201526007820154608082015260089091015460ff16151560a0909101528351849084908110610b1d57610b1d611127565b60200260200101819052508180610b3390610f9b565b9250508080610b4190610f9b565b9150506108f0565b509093505050505b92915050565b5f8181526001602052604090206008015460ff16610bb05760405162461bcd60e51b815260206004820152601660248201527512195b1c081c995c5d595cdd081a5cc818db1bdcd95960521b6044820152606401610396565b5f8181526001602052604081206007018054349290610bd0908490611114565b909155505060408051828152336020820152348183015290517f0b5b4c52969ff7329ecf7ee536409fda87812b15a8622bc6e8cdeab3aee14a269181900360600190a15f818152600160205260409020600681015460079091015410610c3957610c398161031b565b50565b5f60208284031215610c4c575f80fd5b5035919050565b5f81518084528060208401602086015e5f602082860101526020601f19601f83011685010191505092915050565b89815261012060208201525f610c9b61012083018b610c53565b8281036040840152610cad818b610c53565b90508281036060840152610cc1818a610c53565b608084019890985250506001600160a01b039490941660a085015260c084019290925260e0830152151561010090910152949350505050565b634e487b7160e01b5f52604160045260245ffd5b5f82601f830112610d1d575f80fd5b813567ffffffffffffffff811115610d3757610d37610cfa565b604051601f8201601f19908116603f0116810167ffffffffffffffff81118282101715610d6657610d66610cfa565b604052818152838201602001851015610d7d575f80fd5b816020850160208301375f918101602001919091529392505050565b5f805f8060808587031215610dac575f80fd5b843567ffffffffffffffff811115610dc2575f80fd5b610dce87828801610d0e565b945050602085013567ffffffffffffffff811115610dea575f80fd5b610df687828801610d0e565b935050604085013567ffffffffffffffff811115610e12575f80fd5b610e1e87828801610d0e565b949793965093946060013593505050565b5f8060408385031215610e40575f80fd5b50508035926020909101359150565b5f602082016020835280845180835260408501915060408160051b8601019250602086015f5b82811015610f4357603f1987860301845281518051865260208101516101206020880152610ea7610120880182610c53565b905060408201518782036040890152610ec08282610c53565b91505060608201518782036060890152610eda8282610c53565b9150506080820151608088015260a0820151610f0160a08901826001600160a01b03169052565b5060c082015160c088015260e082015160e08801526101008201519150610f2d61010088018315159052565b9550506020938401939190910190600101610e75565b50929695505050505050565b600181811c90821680610f6357607f821691505b602082108103610f8157634e487b7160e01b5f52602260045260245ffd5b50919050565b634e487b7160e01b5f52601160045260245ffd5b5f60018201610fac57610fac610f87565b5060010190565b601f821115610ffa57805f5260205f20601f840160051c81016020851015610fd85750805b601f840160051c820191505b81811015610ff7575f8155600101610fe4565b50505b505050565b815167ffffffffffffffff81111561101957611019610cfa565b61102d816110278454610f4f565b84610fb3565b6020601f82116001811461105f575f83156110485750848201515b5f19600385901b1c1916600184901b178455610ff7565b5f84815260208120601f198516915b8281101561108e578785015182556020948501946001909201910161106e565b50848210156110ab57868401515f19600387901b60f8161c191681555b50505050600190811b01905550565b838152606060208201525f6110d26060830185610c53565b905060018060a01b0383166040830152949350505050565b81810381811115610b5157610b51610f87565b8082028115828204841417610b5157610b51610f87565b80820180821115610b5157610b51610f87565b634e487b7160e01b5f52603260045260245ffdfea264697066735822122061b00b05fdafd28d7bf376cf77719f97819aad64d4f25805c5e031c0c76cf7be64736f6c634300081a0033",
    "sourcePath": "c:/Projects/floodhelp/floodhelp.sol",
    "compiler": {
        "name": "solc",
        "version": "0.8.26+commit.8a97fa7a"
    },
    "functionHashes": {
        "closeHelpRequest(uint256)": "61a8545a",
        "donate(uint256)": "f14faf6f",
        "getHelpRequests(uint256,uint256)": "bf66237b",
        "helpRequests(uint256)": "06e7b83f",
        "lastId()": "c1292cc3",
        "openHelpRequest(string,string,string,uint256)": "67b17cfc"
    },
    "gasEstimates": {
        "creation": {
            "codeDepositCost": "893000",
            "executionCost": "5932",
            "totalCost": "898932"
        },
        "external": {
            "closeHelpRequest(uint256)": "infinite",
            "donate(uint256)": "infinite",
            "getHelpRequests(uint256,uint256)": "infinite",
            "helpRequests(uint256)": "infinite",
            "lastId()": "2359",
            "openHelpRequest(string,string,string,uint256)": "infinite"
        }
    }
}