{
    "contractName": "FloodHelp",
    "abi": [
        {
            "inputs": [],
            "name": "ReentrancyGuardReentrantCall",
            "type": "error"
        },
        {
            "anonymous": false,
            "inputs": [
                {
                    "indexed": false,
                    "internalType": "uint256",
                    "name": "id",
                    "type": "uint256"
                },
                {
                    "indexed": false,
                    "internalType": "address",
                    "name": "donor",
                    "type": "address"
                },
                {
                    "indexed": false,
                    "internalType": "uint256",
                    "name": "amount",
                    "type": "uint256"
                }
            ],
            "name": "DonationReceived",
            "type": "event"
        },
        {
            "anonymous": false,
            "inputs": [
                {
                    "indexed": false,
                    "internalType": "uint256",
                    "name": "id",
                    "type": "uint256"
                },
                {
                    "indexed": false,
                    "internalType": "address",
                    "name": "author",
                    "type": "address"
                }
            ],
            "name": "HelpRequestClosed",
            "type": "event"
        },
        {
            "anonymous": false,
            "inputs": [
                {
                    "indexed": false,
                    "internalType": "uint256",
                    "name": "id",
                    "type": "uint256"
                },
                {
                    "indexed": false,
                    "internalType": "string",
                    "name": "title",
                    "type": "string"
                },
                {
                    "indexed": false,
                    "internalType": "address",
                    "name": "author",
                    "type": "address"
                }
            ],
            "name": "HelpRequestOpened",
            "type": "event"
        },
        {
            "inputs": [
                {
                    "internalType": "uint256",
                    "name": "id",
                    "type": "uint256"
                }
            ],
            "name": "closeHelpRequest",
            "outputs": [],
            "stateMutability": "nonpayable",
            "type": "function"
        },
        {
            "inputs": [
                {
                    "internalType": "uint256",
                    "name": "id",
                    "type": "uint256"
                }
            ],
            "name": "donate",
            "outputs": [],
            "stateMutability": "payable",
            "type": "function"
        },
        {
            "inputs": [
                {
                    "internalType": "uint256",
                    "name": "page",
                    "type": "uint256"
                },
                {
                    "internalType": "uint256",
                    "name": "pageSize",
                    "type": "uint256"
                }
            ],
            "name": "getHelpRequests",
            "outputs": [
                {
                    "components": [
                        {
                            "internalType": "uint256",
                            "name": "id",
                            "type": "uint256"
                        },
                        {
                            "internalType": "string",
                            "name": "title",
                            "type": "string"
                        },
                        {
                            "internalType": "string",
                            "name": "description",
                            "type": "string"
                        },
                        {
                            "internalType": "string",
                            "name": "contact",
                            "type": "string"
                        },
                        {
                            "internalType": "uint256",
                            "name": "timestamp",
                            "type": "uint256"
                        },
                        {
                            "internalType": "address",
                            "name": "author",
                            "type": "address"
                        },
                        {
                            "internalType": "uint256",
                            "name": "goal",
                            "type": "uint256"
                        },
                        {
                            "internalType": "uint256",
                            "name": "balance",
                            "type": "uint256"
                        },
                        {
                            "internalType": "bool",
                            "name": "open",
                            "type": "bool"
                        }
                    ],
                    "internalType": "struct FloodHelp.HelpRequest[]",
                    "name": "",
                    "type": "tuple[]"
                }
            ],
            "stateMutability": "view",
            "type": "function"
        },
        {
            "inputs": [
                {
                    "internalType": "uint256",
                    "name": "",
                    "type": "uint256"
                }
            ],
            "name": "helpRequests",
            "outputs": [
                {
                    "internalType": "uint256",
                    "name": "id",
                    "type": "uint256"
                },
                {
                    "internalType": "string",
                    "name": "title",
                    "type": "string"
                },
                {
                    "internalType": "string",
                    "name": "description",
                    "type": "string"
                },
                {
                    "internalType": "string",
                    "name": "contact",
                    "type": "string"
                },
                {
                    "internalType": "uint256",
                    "name": "timestamp",
                    "type": "uint256"
                },
                {
                    "internalType": "address",
                    "name": "author",
                    "type": "address"
                },
                {
                    "internalType": "uint256",
                    "name": "goal",
                    "type": "uint256"
                },
                {
                    "internalType": "uint256",
                    "name": "balance",
                    "type": "uint256"
                },
                {
                    "internalType": "bool",
                    "name": "open",
                    "type": "bool"
                }
            ],
            "stateMutability": "view",
            "type": "function"
        },
        {
            "inputs": [],
            "name": "lastId",
            "outputs": [
                {
                    "internalType": "uint256",
                    "name": "",
                    "type": "uint256"
                }
            ],
            "stateMutability": "view",
            "type": "function"
        },
        {
            "inputs": [
                {
                    "internalType": "string",
                    "name": "title",
                    "type": "string"
                },
                {
                    "internalType": "string",
                    "name": "description",
                    "type": "string"
                },
                {
                    "internalType": "string",
                    "name": "contact",
                    "type": "string"
                },
                {
                    "internalType": "uint256",
                    "name": "goal",
                    "type": "uint256"
                }
            ],
            "name": "openHelpRequest",
            "outputs": [],
            "stateMutability": "nonpayable",
            "type": "function"
        }
    ],
    "bytecode": "60806040525f6001553480156012575f80fd5b5060015f556111d0806100245f395ff3fe608060405260043610610054575f3560e01c806306e7b83f1461005857806361a8545a1461009557806367b17cfc146100b6578063bf66237b146100d5578063c1292cc314610101578063f14faf6f14610124575b5f80fd5b348015610063575f80fd5b50610077610072366004610c9b565b610137565b60405161008c99989796959493929190610ce0565b60405180910390f35b3480156100a0575f80fd5b506100b46100af366004610c9b565b61031d565b005b3480156100c1575f80fd5b506100b46100d0366004610df8565b6104cb565b3480156100e0575f80fd5b506100f46100ef366004610e8e565b61074f565b60405161008c9190610eae565b34801561010c575f80fd5b5061011660015481565b60405190815260200161008c565b6100b4610132366004610c9b565b610b80565b60026020525f90815260409020805460018201805491929161015890610fae565b80601f016020809104026020016040519081016040528092919081815260200182805461018490610fae565b80156101cf5780601f106101a6576101008083540402835291602001916101cf565b820191905f5260205f20905b8154815290600101906020018083116101b257829003601f168201915b5050505050908060020180546101e490610fae565b80601f016020809104026020016040519081016040528092919081815260200182805461021090610fae565b801561025b5780601f106102325761010080835404028352916020019161025b565b820191905f5260205f20905b81548152906001019060200180831161023e57829003601f168201915b50505050509080600301805461027090610fae565b80601f016020809104026020016040519081016040528092919081815260200182805461029c90610fae565b80156102e75780601f106102be576101008083540402835291602001916102e7565b820191905f5260205f20905b8154815290600101906020018083116102ca57829003601f168201915b5050506004840154600585015460068601546007870154600890970154959692956001600160a01b039092169450925060ff1689565b610325610c73565b5f8181526002602052604090206005810154600782015460068301546008909301546001600160a01b0390921692909160ff166103a95760405162461bcd60e51b815260206004820152601e60248201527f48656c70207265717565737420697320616c726561647920636c6f736564000060448201526064015b60405180910390fd5b336001600160a01b03841614806103c05750808210155b6104175760405162461bcd60e51b815260206004820152602260248201527f596f752063616e6e6f7420636c6f736520746869732068656c702072657175656044820152611cdd60f21b60648201526084016103a0565b5f848152600260205260409020600801805460ff19169055811561047b575f84815260026020526040808220600701829055516001600160a01b0385169184156108fc02918591818181858888f19350505050158015610479573d5f803e3d5ffd5b505b604080518581526001600160a01b03851660208201527f3234d70cd5e39b9e554d3e8b9325321e54907ae69176903be767b1207075cdd4910160405180910390a15050506104c860015f55565b50565b5f8451116105135760405162461bcd60e51b81526020600482015260156024820152745469746c652063616e6e6f7420626520656d70747960581b60448201526064016103a0565b5f8351116105635760405162461bcd60e51b815260206004820152601b60248201527f4465736372697074696f6e2063616e6e6f7420626520656d707479000000000060448201526064016103a0565b5f8251116105b35760405162461bcd60e51b815260206004820152601760248201527f436f6e746163742063616e6e6f7420626520656d70747900000000000000000060448201526064016103a0565b5f81116106025760405162461bcd60e51b815260206004820152601e60248201527f476f616c206d7573742062652067726561746572207468616e207a65726f000060448201526064016103a0565b60018054905f61061183610ffa565b90915550506040805161012081018252600180548083526020808401898152848601899052606085018890524260808601523360a086015260c085018790525f60e086018190526101008601859052928352600290915293902082518155925191929190820190610682908261105e565b5060408201516002820190610697908261105e565b50606082015160038201906106ac908261105e565b506080820151600482015560a08201516005820180546001600160a01b0319166001600160a01b0390921691909117905560c0820151600682015560e08201516007820155610100909101516008909101805460ff19169115159190911790556001546040517f2cf91490ecc014adc4ee643b363f73270ff63d9aa2c225af610d9763319f876a916107419187903390611119565b60405180910390a150505050565b60605f83116107ae5760405162461bcd60e51b815260206004820152602560248201527f50616765206e756d626572206d7573742062652067726561746572207468616e604482015264207a65726f60d81b60648201526084016103a0565b5f82116108095760405162461bcd60e51b815260206004820152602360248201527f506167652073697a65206d7573742062652067726561746572207468616e207a60448201526265726f60e81b60648201526084016103a0565b5f82610816600186611149565b610820919061115c565b61082b906001611173565b90505f600161083a8584611173565b6108449190611149565b905060015481116108555780610859565b6001545b90505f6108668383611149565b610871906001611173565b67ffffffffffffffff81111561088957610889610d59565b60405190808252806020026020018201604052801561090e57816020015b6108fb6040518061012001604052805f81526020016060815260200160608152602001606081526020015f81526020015f6001600160a01b031681526020015f81526020015f81526020015f151581525090565b8152602001906001900390816108a75790505b5090505f835b838111610b725760025f8281526020019081526020015f20604051806101200160405290815f820154815260200160018201805461095190610fae565b80601f016020809104026020016040519081016040528092919081815260200182805461097d90610fae565b80156109c85780601f1061099f576101008083540402835291602001916109c8565b820191905f5260205f20905b8154815290600101906020018083116109ab57829003601f168201915b505050505081526020016002820180546109e190610fae565b80601f0160208091040260200160405190810160405280929190818152602001828054610a0d90610fae565b8015610a585780601f10610a2f57610100808354040283529160200191610a58565b820191905f5260205f20905b815481529060010190602001808311610a3b57829003601f168201915b50505050508152602001600382018054610a7190610fae565b80601f0160208091040260200160405190810160405280929190818152602001828054610a9d90610fae565b8015610ae85780601f10610abf57610100808354040283529160200191610ae8565b820191905f5260205f20905b815481529060010190602001808311610acb57829003601f168201915b50505091835250506004820154602082015260058201546001600160a01b03166040820152600682015460608201526007820154608082015260089091015460ff16151560a0909101528351849084908110610b4657610b46611186565b60200260200101819052508180610b5c90610ffa565b9250508080610b6a90610ffa565b915050610914565b509093505050505b92915050565b610b88610c73565b5f8181526002602052604090206008015460ff16610be15760405162461bcd60e51b815260206004820152601660248201527512195b1c081c995c5d595cdd081a5cc818db1bdcd95960521b60448201526064016103a0565b5f8181526002602052604081206007018054349290610c01908490611173565b909155505060408051828152336020820152348183015290517f0b5b4c52969ff7329ecf7ee536409fda87812b15a8622bc6e8cdeab3aee14a269181900360600190a15f818152600260205260409020600681015460079091015410610c6a57610c6a8161031d565b6104c860015f55565b60025f5403610c9557604051633ee5aeb560e01b815260040160405180910390fd5b60025f55565b5f60208284031215610cab575f80fd5b5035919050565b5f81518084528060208401602086015e5f602082860101526020601f19601f83011685010191505092915050565b89815261012060208201525f610cfa61012083018b610cb2565b8281036040840152610d0c818b610cb2565b90508281036060840152610d20818a610cb2565b608084019890985250506001600160a01b039490941660a085015260c084019290925260e0830152151561010090910152949350505050565b634e487b7160e01b5f52604160045260245ffd5b5f82601f830112610d7c575f80fd5b813567ffffffffffffffff811115610d9657610d96610d59565b604051601f8201601f19908116603f0116810167ffffffffffffffff81118282101715610dc557610dc5610d59565b604052818152838201602001851015610ddc575f80fd5b816020850160208301375f918101602001919091529392505050565b5f805f8060808587031215610e0b575f80fd5b843567ffffffffffffffff811115610e21575f80fd5b610e2d87828801610d6d565b945050602085013567ffffffffffffffff811115610e49575f80fd5b610e5587828801610d6d565b935050604085013567ffffffffffffffff811115610e71575f80fd5b610e7d87828801610d6d565b949793965093946060013593505050565b5f8060408385031215610e9f575f80fd5b50508035926020909101359150565b5f602082016020835280845180835260408501915060408160051b8601019250602086015f5b82811015610fa257603f1987860301845281518051865260208101516101206020880152610f06610120880182610cb2565b905060408201518782036040890152610f1f8282610cb2565b91505060608201518782036060890152610f398282610cb2565b9150506080820151608088015260a0820151610f6060a08901826001600160a01b03169052565b5060c082015160c088015260e082015160e08801526101008201519150610f8c61010088018315159052565b9550506020938401939190910190600101610ed4565b50929695505050505050565b600181811c90821680610fc257607f821691505b602082108103610fe057634e487b7160e01b5f52602260045260245ffd5b50919050565b634e487b7160e01b5f52601160045260245ffd5b5f6001820161100b5761100b610fe6565b5060010190565b601f82111561105957805f5260205f20601f840160051c810160208510156110375750805b601f840160051c820191505b81811015611056575f8155600101611043565b50505b505050565b815167ffffffffffffffff81111561107857611078610d59565b61108c816110868454610fae565b84611012565b6020601f8211600181146110be575f83156110a75750848201515b5f19600385901b1c1916600184901b178455611056565b5f84815260208120601f198516915b828110156110ed57878501518255602094850194600190920191016110cd565b508482101561110a57868401515f19600387901b60f8161c191681555b50505050600190811b01905550565b838152606060208201525f6111316060830185610cb2565b905060018060a01b0383166040830152949350505050565b81810381811115610b7a57610b7a610fe6565b8082028115828204841417610b7a57610b7a610fe6565b80820180821115610b7a57610b7a610fe6565b634e487b7160e01b5f52603260045260245ffdfea26469706673582212200f1305b807a14610a60dc0be87a87fbf2feb503157c0da52589ffe7e9c7079af64736f6c634300081a0033",
    "sourcePath": "c:/Projects/floodhelp/floodhelp.sol",
    "compiler": {
        "name": "solc",
        "version": "0.8.26+commit.8a97fa7a"
    },
    "functionHashes": {
        "closeHelpRequest(uint256)": "61a8545a",
        "donate(uint256)": "f14faf6f",
        "getHelpRequests(uint256,uint256)": "bf66237b",
        "helpRequests(uint256)": "06e7b83f",
        "lastId()": "c1292cc3",
        "openHelpRequest(string,string,string,uint256)": "67b17cfc"
    },
    "gasEstimates": {
        "creation": {
            "codeDepositCost": "912000",
            "executionCost": "28056",
            "totalCost": "940056"
        },
        "external": {
            "closeHelpRequest(uint256)": "infinite",
            "donate(uint256)": "infinite",
            "getHelpRequests(uint256,uint256)": "infinite",
            "helpRequests(uint256)": "infinite",
            "lastId()": "2360",
            "openHelpRequest(string,string,string,uint256)": "infinite"
        }
    }
}